{
  "abi": [
    {
      "inputs": [
        {
          "internalType": "address",
          "name": "oracle",
          "type": "address"
        }
      ],
      "stateMutability": "nonpayable",
      "type": "constructor"
    },
    {
      "inputs": [],
      "name": "EmptyArgs",
      "type": "error"
    },
    {
      "inputs": [],
      "name": "EmptySecrets",
      "type": "error"
    },
    {
      "inputs": [],
      "name": "EmptySource",
      "type": "error"
    },
    {
      "inputs": [],
      "name": "NoInlineSecrets",
      "type": "error"
    },
    {
      "inputs": [],
      "name": "RequestIsAlreadyPending",
      "type": "error"
    },
    {
      "inputs": [],
      "name": "RequestIsNotPending",
      "type": "error"
    },
    {
      "inputs": [],
      "name": "SenderIsNotRegistry",
      "type": "error"
    },
    {
      "anonymous": false,
      "inputs": [
        {
          "indexed": true,
          "internalType": "bytes32",
          "name": "requestId",
          "type": "bytes32"
        },
        {
          "indexed": false,
          "internalType": "bytes",
          "name": "result",
          "type": "bytes"
        },
        {
          "indexed": false,
          "internalType": "bytes",
          "name": "err",
          "type": "bytes"
        }
      ],
      "name": "OCRResponse",
      "type": "event"
    },
    {
      "anonymous": false,
      "inputs": [
        {
          "indexed": true,
          "internalType": "address",
          "name": "from",
          "type": "address"
        },
        {
          "indexed": true,
          "internalType": "address",
          "name": "to",
          "type": "address"
        }
      ],
      "name": "OwnershipTransferRequested",
      "type": "event"
    },
    {
      "anonymous": false,
      "inputs": [
        {
          "indexed": true,
          "internalType": "address",
          "name": "from",
          "type": "address"
        },
        {
          "indexed": true,
          "internalType": "address",
          "name": "to",
          "type": "address"
        }
      ],
      "name": "OwnershipTransferred",
      "type": "event"
    },
    {
      "anonymous": false,
      "inputs": [
        {
          "indexed": true,
          "internalType": "bytes32",
          "name": "id",
          "type": "bytes32"
        }
      ],
      "name": "RequestFulfilled",
      "type": "event"
    },
    {
      "anonymous": false,
      "inputs": [
        {
          "indexed": true,
          "internalType": "bytes32",
          "name": "id",
          "type": "bytes32"
        }
      ],
      "name": "RequestSent",
      "type": "event"
    },
    {
      "inputs": [],
      "name": "acceptOwnership",
      "outputs": [],
      "stateMutability": "nonpayable",
      "type": "function"
    },
    {
      "inputs": [
        {
          "internalType": "address",
          "name": "oracleAddress",
          "type": "address"
        },
        {
          "internalType": "bytes32",
          "name": "requestId",
          "type": "bytes32"
        }
      ],
      "name": "addSimulatedRequestId",
      "outputs": [],
      "stateMutability": "nonpayable",
      "type": "function"
    },
    {
      "inputs": [
        {
          "components": [
            {
              "internalType": "enum Functions.Location",
              "name": "codeLocation",
              "type": "uint8"
            },
            {
              "internalType": "enum Functions.Location",
              "name": "secretsLocation",
              "type": "uint8"
            },
            {
              "internalType": "enum Functions.CodeLanguage",
              "name": "language",
              "type": "uint8"
            },
            {
              "internalType": "string",
              "name": "source",
              "type": "string"
            },
            {
              "internalType": "bytes",
              "name": "secrets",
              "type": "bytes"
            },
            {
              "internalType": "string[]",
              "name": "args",
              "type": "string[]"
            }
          ],
          "internalType": "struct Functions.Request",
          "name": "req",
          "type": "tuple"
        },
        {
          "internalType": "uint64",
          "name": "subscriptionId",
          "type": "uint64"
        },
        {
          "internalType": "uint32",
          "name": "gasLimit",
          "type": "uint32"
        },
        {
          "internalType": "uint256",
          "name": "gasPrice",
          "type": "uint256"
        }
      ],
      "name": "estimateCost",
      "outputs": [
        {
          "internalType": "uint96",
          "name": "",
          "type": "uint96"
        }
      ],
      "stateMutability": "view",
      "type": "function"
    },
    {
      "inputs": [
        {
          "internalType": "string",
          "name": "source",
          "type": "string"
        },
        {
          "internalType": "bytes",
          "name": "secrets",
          "type": "bytes"
        },
        {
          "internalType": "string[]",
          "name": "args",
          "type": "string[]"
        },
        {
          "internalType": "uint64",
          "name": "subscriptionId",
          "type": "uint64"
        },
        {
          "internalType": "uint32",
          "name": "gasLimit",
          "type": "uint32"
        }
      ],
      "name": "executeRequest",
      "outputs": [
        {
          "internalType": "bytes32",
          "name": "",
          "type": "bytes32"
        }
      ],
      "stateMutability": "nonpayable",
      "type": "function"
    },
    {
      "inputs": [],
      "name": "fee",
      "outputs": [
        {
          "internalType": "uint96",
          "name": "",
          "type": "uint96"
        }
      ],
      "stateMutability": "view",
      "type": "function"
    },
    {
      "inputs": [
        {
          "internalType": "string",
          "name": "source",
          "type": "string"
        },
        {
          "internalType": "bytes",
          "name": "secrets",
          "type": "bytes"
        },
        {
          "internalType": "string[]",
          "name": "args",
          "type": "string[]"
        },
        {
          "internalType": "uint64",
          "name": "subscriptionId",
          "type": "uint64"
        },
        {
          "internalType": "uint32",
          "name": "gasLimit",
          "type": "uint32"
        },
        {
          "internalType": "uint256",
          "name": "gasPrice",
          "type": "uint256"
        }
      ],
      "name": "getCostEstimate",
      "outputs": [
        {
          "internalType": "uint256",
          "name": "",
          "type": "uint256"
        }
      ],
      "stateMutability": "view",
      "type": "function"
    },
    {
      "inputs": [],
      "name": "getDONPublicKey",
      "outputs": [
        {
          "internalType": "bytes",
          "name": "",
          "type": "bytes"
        }
      ],
      "stateMutability": "view",
      "type": "function"
    },
    {
      "inputs": [
        {
          "internalType": "bytes32",
          "name": "requestId",
          "type": "bytes32"
        },
        {
          "internalType": "bytes",
          "name": "response",
          "type": "bytes"
        },
        {
          "internalType": "bytes",
          "name": "err",
          "type": "bytes"
        }
      ],
      "name": "handleOracleFulfillment",
      "outputs": [],
      "stateMutability": "nonpayable",
      "type": "function"
    },
    {
      "inputs": [],
      "name": "latestError",
      "outputs": [
        {
          "internalType": "bytes",
          "name": "",
          "type": "bytes"
        }
      ],
      "stateMutability": "view",
      "type": "function"
    },
    {
      "inputs": [],
      "name": "latestRequestId",
      "outputs": [
        {
          "internalType": "bytes32",
          "name": "",
          "type": "bytes32"
        }
      ],
      "stateMutability": "view",
      "type": "function"
    },
    {
      "inputs": [],
      "name": "latestResponse",
      "outputs": [
        {
          "internalType": "bytes",
          "name": "",
          "type": "bytes"
        }
      ],
      "stateMutability": "view",
      "type": "function"
    },
    {
      "inputs": [],
      "name": "owner",
      "outputs": [
        {
          "internalType": "address",
          "name": "",
          "type": "address"
        }
      ],
      "stateMutability": "view",
      "type": "function"
    },
    {
      "inputs": [
        {
          "internalType": "address",
          "name": "to",
          "type": "address"
        }
      ],
      "name": "transferOwnership",
      "outputs": [],
      "stateMutability": "nonpayable",
      "type": "function"
    },
    {
      "inputs": [
        {
          "internalType": "address",
          "name": "oracle",
          "type": "address"
        }
      ],
      "name": "updateOracleAddress",
      "outputs": [],
      "stateMutability": "nonpayable",
      "type": "function"
    }
  ],
  "bytecode": {
    "object": "0x60806040523480156200001157600080fd5b506040516200202c3803806200202c833981016040819052620000349162000198565b600080546001600160a01b0319166001600160a01b038316178155339081906001600160a01b038216620000af5760405162461bcd60e51b815260206004820152601860248201527f43616e6e6f7420736574206f776e657220746f207a65726f000000000000000060448201526064015b60405180910390fd5b600280546001600160a01b0319166001600160a01b0384811691909117909155811615620000e257620000e281620000ec565b50505050620001ca565b336001600160a01b03821603620001465760405162461bcd60e51b815260206004820152601760248201527f43616e6e6f74207472616e7366657220746f2073656c660000000000000000006044820152606401620000a6565b600380546001600160a01b0319166001600160a01b03838116918217909255600254604051919216907fed8889f560326eb138920d842192f0eb3dd22b4f139c87a2c57538e05bae127890600090a350565b600060208284031215620001ab57600080fd5b81516001600160a01b0381168114620001c357600080fd5b9392505050565b611e5280620001da6000396000f3fe608060405234801561001057600080fd5b50600436106100ea5760003560e01c8063bef3a2f01161008c578063ddca3f4311610066578063ddca3f43146101c4578063f2fde38b146101d7578063f7023bb6146101ea578063fffeb84e146101fd57600080fd5b8063bef3a2f01461017c578063d328a91e14610191578063d4b391751461019957600080fd5b806330bda99d116100c857806330bda99d146101335780637785d5401461014657806379ba5097146101595780638da5cb5b1461016157600080fd5b80630ca76175146100ef5780631aa46f59146101045780632771458914610120575b600080fd5b6101026100fd3660046113d8565b610205565b005b61010d60045481565b6040519081526020015b60405180910390f35b61010d61012e366004611500565b610292565b6101026101413660046115cf565b6103a0565b61010d6101543660046115fb565b6103b6565b6101026105c5565b6002546040516001600160a01b039091168152602001610117565b610184610678565b604051610117919061170e565b610184610706565b6101ac6101a73660046117e3565b61077c565b6040516001600160601b039091168152602001610117565b6007546101ac906001600160601b031681565b6101026101e53660046118f4565b610803565b6101026101f83660046118f4565b610817565b61018461083d565b60008381526001602052604090205483906001600160a01b0316331461023e5760405163a0c5ec6360e01b815260040160405180910390fd5b60008181526001602052604080822080546001600160a01b03191690555182917f85e1543bf2f84fe80c6badbce3648c8539ad1df4d2b3d822938ca0538be727e691a261028c84848461084a565b50505050565b600061029c6108a3565b6102d66040805160c08101909152806000815260200160008152602001600081526020016060815260200160608152602001606081525090565b61031d6000808c8c8080601f016020809104026020016040519081016040528093929190818152602001838380828437600092019190915250879594939250506108f89050565b86156103655761036588888080601f01602080910402602001604051908101604052809392919081815260200183838082843760009201919091525085939250506109769050565b841561037f5761037f6103788688611911565b82906109a7565b600061038c8286866109d1565b60048190559b9a5050505050505050505050565b6103a86108a3565b6103b28282610b25565b5050565b60006103f26040805160c08101909152806000815260200160008152602001600081526020016060815260200160608152602001606081525090565b6104396000808d8d8080601f016020809104026020016040519081016040528093929190818152602001838380828437600092019190915250879594939250506108f89050565b87156104815761048189898080601f01602080910402602001604051908101604052809392919081815260200183838082843760009201919091525085939250506109769050565b8515610494576104946103788789611911565b6000731c2252aeed50e0c9b64bdff2735ee3c932f5c4086001600160a01b031663feaf968c6040518163ffffffff1660e01b815260040160a060405180830381865afa1580156104e8573d6000803e3d6000fd5b505050506040513d601f19601f8201168201806040525081019061050c9190611938565b505050915050731c2252aeed50e0c9b64bdff2735ee3c932f5c4086001600160a01b031663313ce5676040518163ffffffff1660e01b8152600401602060405180830381865afa158015610564573d6000803e3d6000fd5b505050506040513d601f19601f820116820180604052508101906105889190611988565b60ff16816105988489898961077c565b6001600160601b03166105ab91906119c1565b6105b591906119ee565b9c9b505050505050505050505050565b6003546001600160a01b0316331461061d5760405162461bcd60e51b815260206004820152601660248201527526bab9ba10313290383937b837b9b2b21037bbb732b960511b60448201526064015b60405180910390fd5b600280546001600160a01b0319808216339081179093556003805490911690556040516001600160a01b03909116919082907f8be0079c531659141344cd1fd0a4f28419497f9722a3daafe3b4186f6b6457e090600090a350565b6005805461068590611a02565b80601f01602080910402602001604051908101604052809291908181526020018280546106b190611a02565b80156106fe5780601f106106d3576101008083540402835291602001916106fe565b820191906000526020600020905b8154815290600101906020018083116106e157829003601f168201915b505050505081565b6000805460408051636994548f60e11b815290516060936001600160a01b039093169263d328a91e92600480820193918290030181865afa15801561074f573d6000803e3d6000fd5b505050506040513d6000823e601f3d908101601f191682016040526107779190810190611a3c565b905090565b600080546001600160a01b031663d227d2458561079888610b8c565b86866040518563ffffffff1660e01b81526004016107b99493929190611aa9565b602060405180830381865afa1580156107d6573d6000803e3d6000fd5b505050506040513d601f19601f820116820180604052508101906107fa9190611ae4565b95945050505050565b61080b6108a3565b61081481610dc4565b50565b61081f6108a3565b600080546001600160a01b0319166001600160a01b03831617905550565b6006805461068590611a02565b60056108568382611b5b565b5060066108638282611b5b565b50827f7bab0ec163b5c132c72b8146ac4d6e067e82ed58f8b131150aa71c92589115628383604051610896929190611c1a565b60405180910390a2505050565b6002546001600160a01b031633146108f65760405162461bcd60e51b815260206004820152601660248201527527b7363c9031b0b63630b1363290313c9037bbb732b960511b6044820152606401610614565b565b805160000361091a576040516322ce3edd60e01b815260040160405180910390fd5b8383600181111561092d5761092d611c3f565b9081600181111561094057610940611c3f565b9052506040840182801561095657610956611c3f565b9081801561096657610966611c3f565b9052506060909301929092525050565b80516000036109985760405163e889636f60e01b815260040160405180910390fd5b60016020830152608090910152565b80516000036109c95760405163fe936cb760e01b815260040160405180910390fd5b60a090910152565b6000805481906001600160a01b03166328242b04856109ef88610b8c565b866040518463ffffffff1660e01b8152600401610a0e93929190611c55565b6020604051808303816000875af1158015610a2d573d6000803e3d6000fd5b505050506040513d601f19601f82011682018060405250810190610a519190611c8d565b905060008054906101000a90046001600160a01b03166001600160a01b0316635ab1bd536040518163ffffffff1660e01b8152600401602060405180830381865afa158015610aa4573d6000803e3d6000fd5b505050506040513d601f19601f82011682018060405250810190610ac89190611ca6565b60008281526001602052604080822080546001600160a01b0319166001600160a01b039490941693909317909255905182917f1131472297a800fee664d1d89cfa8f7676ff07189ecc53f80bbb5f4969099db891a2949350505050565b60008181526001602052604090205481906001600160a01b031615610b5d576040516345a2bd6960e11b815260040160405180910390fd5b50600090815260016020526040902080546001600160a01b0319166001600160a01b0392909216919091179055565b6060610b966112b8565b8051610ba490610100610e6e565b50610bd3816040518060400160405280600c81526020016b31b7b232a637b1b0ba34b7b760a11b815250610ee8565b610bf28184600001516001811115610bed57610bed611c3f565b610f06565b610c1c81604051806040016040528060088152602001676c616e677561676560c01b815250610ee8565b610c368184604001516000811115610bed57610bed611c3f565b610c5e8160405180604001604052806006815260200165736f7572636560d01b815250610ee8565b610c6c818460600151610ee8565b60a08301515115610cf957610c9d81604051806040016040528060048152602001636172677360e01b815250610ee8565b610ca681610f3f565b60005b8360a0015151811015610cef57610cdd828560a001518381518110610cd057610cd0611cc3565b6020026020010151610ee8565b80610ce781611cd9565b915050610ca9565b50610cf981610f63565b60808301515115610dbc57600083602001516001811115610d1c57610d1c611c3f565b03610d3a5760405163a80d31f760e01b815260040160405180910390fd5b610d6b816040518060400160405280600f81526020016e39b2b1b932ba39a637b1b0ba34b7b760891b815250610ee8565b610d858184602001516001811115610bed57610bed611c3f565b610dae81604051806040016040528060078152602001667365637265747360c81b815250610ee8565b610dbc818460800151610f81565b515192915050565b336001600160a01b03821603610e1c5760405162461bcd60e51b815260206004820152601760248201527f43616e6e6f74207472616e7366657220746f2073656c660000000000000000006044820152606401610614565b600380546001600160a01b0319166001600160a01b03838116918217909255600254604051919216907fed8889f560326eb138920d842192f0eb3dd22b4f139c87a2c57538e05bae127890600090a350565b604080518082019091526060815260006020820152610e8e602083611cf2565b15610eb657610e9e602083611cf2565b610ea9906020611d06565b610eb39083611d19565b91505b602080840183905260405180855260008152908184010181811015610eda57600080fd5b604052508290505b92915050565b610ef58260038351610f8a565b8151610f0190826110a3565b505050565b8151610f139060c26110cb565b506103b28282604051602001610f2b91815260200190565b604051602081830303815290604052610f81565b610f4a816004611134565b600181602001818151610f5d9190611d19565b90525050565b610f6e816007611134565b600181602001818151610f5d9190611d06565b610ef582600283515b6017816001600160401b031611610fb057825161028c9060e0600585901b1683176110cb565b60ff816001600160401b031611610ff0578251610fd8906018611fe0600586901b16176110cb565b50825161028c906001600160401b038316600161114b565b61ffff816001600160401b031611611031578251611019906019611fe0600586901b16176110cb565b50825161028c906001600160401b038316600261114b565b63ffffffff816001600160401b03161161107457825161105c90601a611fe0600586901b16176110cb565b50825161028c906001600160401b038316600461114b565b825161108b90601b611fe0600586901b16176110cb565b50825161028c906001600160401b038316600861114b565b6040805180820190915260608152600060208201526110c4838384516111d0565b9392505050565b60408051808201909152606081526000602082015282515160006110f0826001611d19565b905084602001518210611111576111118561110c8360026119c1565b6112a1565b845160208382010185815350805182111561112a578181525b5093949350505050565b8151610f0190601f611fe0600585901b16176110cb565b604080518082019091526060815260006020820152835151600061116f8285611d19565b9050856020015181111561118c5761118c8661110c8360026119c1565b6000600161119c86610100611e10565b6111a69190611d06565b905086518281018783198251161781525080518311156111c4578281525b50959695505050505050565b60408051808201909152606081526000602082015282518211156111f357600080fd5b83515160006112028483611d19565b9050856020015181111561121f5761121f8661110c8360026119c1565b855180518382016020019160009180851115611239578482525b505050602086015b602086106112795780518252611258602083611d19565b9150611265602082611d19565b9050611272602087611d06565b9550611241565b51815160001960208890036101000a0190811690199190911617905250849150509392505050565b81516112ad8383610e6e565b5061028c83826110a3565b60405180604001604052806112e0604051806040016040528060608152602001600081525090565b8152602001600081525090565b634e487b7160e01b600052604160045260246000fd5b60405160c081016001600160401b0381118282101715611325576113256112ed565b60405290565b604051601f8201601f191681016001600160401b0381118282101715611353576113536112ed565b604052919050565b60006001600160401b03821115611374576113746112ed565b50601f01601f191660200190565b600082601f83011261139357600080fd5b81356113a66113a18261135b565b61132b565b8181528460208386010111156113bb57600080fd5b816020850160208301376000918101602001919091529392505050565b6000806000606084860312156113ed57600080fd5b8335925060208401356001600160401b038082111561140b57600080fd5b61141787838801611382565b9350604086013591508082111561142d57600080fd5b5061143a86828701611382565b9150509250925092565b60008083601f84011261145657600080fd5b5081356001600160401b0381111561146d57600080fd5b60208301915083602082850101111561148557600080fd5b9250929050565b60008083601f84011261149e57600080fd5b5081356001600160401b038111156114b557600080fd5b6020830191508360208260051b850101111561148557600080fd5b80356001600160401b03811681146114e757600080fd5b919050565b803563ffffffff811681146114e757600080fd5b60008060008060008060008060a0898b03121561151c57600080fd5b88356001600160401b038082111561153357600080fd5b61153f8c838d01611444565b909a50985060208b013591508082111561155857600080fd5b6115648c838d01611444565b909850965060408b013591508082111561157d57600080fd5b5061158a8b828c0161148c565b909550935061159d905060608a016114d0565b91506115ab60808a016114ec565b90509295985092959890939650565b6001600160a01b038116811461081457600080fd5b600080604083850312156115e257600080fd5b82356115ed816115ba565b946020939093013593505050565b600080600080600080600080600060c08a8c03121561161957600080fd5b89356001600160401b038082111561163057600080fd5b61163c8d838e01611444565b909b50995060208c013591508082111561165557600080fd5b6116618d838e01611444565b909950975060408c013591508082111561167a57600080fd5b506116878c828d0161148c565b909650945061169a905060608b016114d0565b92506116a860808b016114ec565b915060a08a013590509295985092959850929598565b60005b838110156116d95781810151838201526020016116c1565b50506000910152565b600081518084526116fa8160208601602086016116be565b601f01601f19169290920160200192915050565b6020815260006110c460208301846116e2565b8035600281106114e757600080fd5b8035600181106114e757600080fd5b60006001600160401b0380841115611759576117596112ed565b8360051b602061176a81830161132b565b8681529350908401908084018783111561178357600080fd5b855b838110156117b75780358581111561179d5760008081fd5b6117a98a828a01611382565b835250908201908201611785565b50505050509392505050565b600082601f8301126117d457600080fd5b6110c48383356020850161173f565b600080600080608085870312156117f957600080fd5b84356001600160401b038082111561181057600080fd5b9086019060c0828903121561182457600080fd5b61182c611303565b61183583611721565b815261184360208401611721565b602082015261185460408401611730565b604082015260608301358281111561186b57600080fd5b6118778a828601611382565b60608301525060808301358281111561188f57600080fd5b61189b8a828601611382565b60808301525060a0830135828111156118b357600080fd5b6118bf8a8286016117c3565b60a08301525095506118d6915050602086016114d0565b92506118e4604086016114ec565b9396929550929360600135925050565b60006020828403121561190657600080fd5b81356110c4816115ba565b60006110c436848461173f565b805169ffffffffffffffffffff811681146114e757600080fd5b600080600080600060a0868803121561195057600080fd5b6119598661191e565b945060208601519350604086015192506060860151915061197c6080870161191e565b90509295509295909350565b60006020828403121561199a57600080fd5b815160ff811681146110c457600080fd5b634e487b7160e01b600052601160045260246000fd5b8082028115828204841417610ee257610ee26119ab565b634e487b7160e01b600052601260045260246000fd5b6000826119fd576119fd6119d8565b500490565b600181811c90821680611a1657607f821691505b602082108103611a3657634e487b7160e01b600052602260045260246000fd5b50919050565b600060208284031215611a4e57600080fd5b81516001600160401b03811115611a6457600080fd5b8201601f81018413611a7557600080fd5b8051611a836113a18261135b565b818152856020838501011115611a9857600080fd5b6107fa8260208301602086016116be565b6001600160401b0385168152608060208201526000611acb60808301866116e2565b63ffffffff949094166040830152506060015292915050565b600060208284031215611af657600080fd5b81516001600160601b03811681146110c457600080fd5b601f821115610f0157600081815260208120601f850160051c81016020861015611b345750805b601f850160051c820191505b81811015611b5357828155600101611b40565b505050505050565b81516001600160401b03811115611b7457611b746112ed565b611b8881611b828454611a02565b84611b0d565b602080601f831160018114611bbd5760008415611ba55750858301515b600019600386901b1c1916600185901b178555611b53565b600085815260208120601f198616915b82811015611bec57888601518255948401946001909101908401611bcd565b5085821015611c0a5787850151600019600388901b60f8161c191681555b5050505050600190811b01905550565b604081526000611c2d60408301856116e2565b82810360208401526107fa81856116e2565b634e487b7160e01b600052602160045260246000fd5b6001600160401b0384168152606060208201526000611c7760608301856116e2565b905063ffffffff83166040830152949350505050565b600060208284031215611c9f57600080fd5b5051919050565b600060208284031215611cb857600080fd5b81516110c4816115ba565b634e487b7160e01b600052603260045260246000fd5b600060018201611ceb57611ceb6119ab565b5060010190565b600082611d0157611d016119d8565b500690565b81810381811115610ee257610ee26119ab565b80820180821115610ee257610ee26119ab565b600181815b80851115611d67578160001904821115611d4d57611d4d6119ab565b80851615611d5a57918102915b93841c9390800290611d31565b509250929050565b600082611d7e57506001610ee2565b81611d8b57506000610ee2565b8160018114611da15760028114611dab57611dc7565b6001915050610ee2565b60ff841115611dbc57611dbc6119ab565b50506001821b610ee2565b5060208310610133831016604e8410600b8410161715611dea575081810a610ee2565b611df48383611d2c565b8060001904821115611e0857611e086119ab565b029392505050565b60006110c48383611d6f56fea26469706673582212203f136c701c12f8b38553b0bd3f70319870e8902b3f650a38436da3d53c27f39164736f6c63430008120033",
    "linkReferences": {}
  },
  "methodIdentifiers": {
    "acceptOwnership()": "79ba5097",
    "addSimulatedRequestId(address,bytes32)": "30bda99d",
    "estimateCost((uint8,uint8,uint8,string,bytes,string[]),uint64,uint32,uint256)": "d4b39175",
    "executeRequest(string,bytes,string[],uint64,uint32)": "27714589",
    "fee()": "ddca3f43",
    "getCostEstimate(string,bytes,string[],uint64,uint32,uint256)": "7785d540",
    "getDONPublicKey()": "d328a91e",
    "handleOracleFulfillment(bytes32,bytes,bytes)": "0ca76175",
    "latestError()": "fffeb84e",
    "latestRequestId()": "1aa46f59",
    "latestResponse()": "bef3a2f0",
    "owner()": "8da5cb5b",
    "transferOwnership(address)": "f2fde38b",
    "updateOracleAddress(address)": "f7023bb6"
  },
  "id": 24
}